:04000000FEEFFFF020
:10FE220000000000000000005F0000000700070063
:10FE3200147F147F14242A7F2A1223130864623643
:10FE4200495620500008070300001C2241000041CF
:10FE5200221C002A1C7F1C2A08083E080800807009
:10FE6200300008080808080000606000201008043C
:10FE7200023E5149453E00427F400072494949468F
:10FE82002141494D331814127F1027454545393C0D
:10FE92004A494931412111090736494949364649FA
:10FEA20049291E000014000000403400000008141C
:10FEB2002241141414141400412214080201590995
:10FEC200063E415D594E7C1211127C7F49494936EA
:10FED2003E414141227F4141413E7F494949417F63
:10FEE200090909013E414151737F0808087F004119
:10FEF2007F41002040413F017F081422417F404062
:10FF020040407F021C027F7F0408107F3E41414136
:10FF12003E7F090909063E4151215E7F09192946A2
:10FF2200264949493203017F01033F4040403F1FB8
:10FF32002040201F3F4038403F63140814630304ED
:10FF42007804036159494D43007F4141410204084D
:10FF52001020004141417F04020102044040404020
:10FF620040000307080020545478407F2844443856
:10FF72003844444428384444287F385454541800A0
:10FF8200087E090218A4A49C787F0804047800441F
:10FF92007D40002040403D007F1028440000417F0A
:10FFA20040007C047804787C080404783844444493
:10FFB20038FC1824241818242418FC7C080404088B
:10FFC200485454542404043F44243C4040207C1CA4
:10FFD2002040201C3C4030403C44281028444C9097
:10FFE20090907C4464544C440008364100000077F1
:0DFFF2000000004136080002010204020078
:020000040001F9
:10000000D40EF66E000EF76E010EF86E09006F004A
:10001000D4FF07F009006F00D4FF08F009006F005B
:10002000D4FF09F0066A056A046A036A026A016A73
:10003000000EF86E00011DEF80F0C590BD9035EC0C
:1000400080F07F0E57EC80F01A0E0C6E5E0E0B6E79
:100050006E0EE82EFED70B2EFCD70C2EFAD700D052
:10006000BD7021EF80F0FEEFFFF03D01149F64ECC6
:1000700080F047EC80F03D011C81198D030E1413B4
:10008000540E151316831B511A51148F1200550E5E
:100090003A01BF6FAA0EBF6FBF911F0E156F1E0EE4
:1000A000136F550EBF6FAA0EBF6FBF8112000A6E8D
:1000B00060002BF011FD3D0117BB61EF80F063EF95
:1000C00080F05BEF80F01200D00EC416D00E3A0123
:0700D00060171200A080017F
:04FFFC0000EF80F0A2
:020000040020DA
:10000000FF0FFF0FFF0FFF0FFF0FFF0FFF0FFF0F80
:020000040030CA
:0A0000008CFFFBFF9FFFFFDFFFFFF7
:00000001FF
